:020000040000FA
:04000000EBEF4FF0E3
:08000800056ED8CF06F0E0CF31
:1000100007F00001E9CF0DF0EACF08F0E1CF09F0D9
:10002000E2CF0AF0D9CF0BF0DACF0CF0F3CF14F017
:10003000F4CF15F0FACF16F0FBCF17F000C00FF099
:1000400001C010F002C011F003C012F004C013F0A0
:100050009DA02EEF00F09EB056EF2BF00FC000F0E9
:1000600010C001F011C002F012C003F013C004F080
:100070000E8E0DC0E9FF08C0EAFF09C0E1FF0AC00B
:10008000E2FF0BC0D9FF0CC0DAFF14C0F3FF15C0AC
:10009000F4FF16C0FAFF17C0FBFF055007C0E0FFD2
:1000A00006C0D8FF1000F2CF0EF0F29EF76AC40F20
:1000B000F66E000EF722000EF86E0900F5500EBE27
:1000C000F28E1200005EBCE2613FDD83C29C7E20A6
:1000D000A3FD1F419DC3217FFCA2401E5F01E3BD24
:1000E0003E6082DC237D9FC1421CFEA0E1BF5D0318
:1000F00080DE3C62BEE0025CDF81633D7C22C09E0C
:100100001D43A1FF4618FAA427799BC584DA3866F7
:10011000E5BB5907DB856739BAE406581947A5FBE3
:100120007826C49A653BD987045AB8E6A7F91B45D7
:10013000C6987A24F8A6441A99C7257B3A6486D8CB
:100140005B05E7B98CD2306EEDB3510F4E10F2ACB7
:100150002F7193CD114FADF3702ECC92D38D6F31A3
:10016000B2EC0E50AFF1134DCE90722C6D33D18F97
:100170000C52B0EE326C8ED0530DEFB1F0AE4C128B
:1001800091CF2D73CA947628ABF517490856B4EA77
:100190006937D58B5709EBB536688AD495CB297763
:1001A000F4AA4816E9B7550B88D6346A2B7597C957
:1001B0004A14F6A8742AC896154BA9F7B6E80A544B
:1001C000D7896B35F76AD80FF66E010EF722000E4D
:1001D000F86E0900F5501200000180028080800353
:1001E000808080808080800480808080808080808B
:1001F000808080808080800580808080808080807A
:1002000080808080808080808080808080808080EE
:100210008080808080808006808080808080808058
:1002200080808080808080808080808080808080CE
:1002300080808080808080808080808080808080BE
:1002400080808080808080808080808080808080AE
:100250008080808080808007808080808080808017
:10026000808080808080808080808080808080808E
:10027000808080808080808080808080808080807E
:10028000808080808080808080808080808080806E
:10029000808080808080808080808080808080805E
:1002A000808080808080808080808080808080804E
:1002B000808080808080808080808080808080803E
:1002C000808080808080808080808080808080802E
:1002D0008080808080808008F76AEC0FF66E020EC6
:1002E000F722000EF86E0900F5501200000101021D
:1002F00001020203010202030203030401020203DA
:1003000002030304020303040304040501020203BD
:1003100002030304020303040304040502030304A9
:100320000304040503040405040505060102020391
:100330000203030402030304030404050203030489
:10034000030404050304040504050506020303046D
:100350000304040503040405040505060304040559
:100360000405050604050506050606070102020345
:100370000203030402030304030404050203030449
:10038000030404050304040504050506020303042D
:100390000304040503040405040505060304040519
:1003A0000405050604050506050606070203030401
:1003B00003040405030404050405050603040405F9
:1003C00004050506040505060506060703040405DD
:1003D00004050506040505060506060704050506C9
:1003E000050606070506060706070708F76A000F51
:1003F000F66E040EF722000EF86E0900F55012009A
:100400000002080A2022282A8082888AA0A2A8AA9C
:10041000F76A240FF66E040EF722000EF86E09003C
:10042000F55012000102050B162C58B1F76A400F67
:10043000F66E040EF722000EF86E0900F550120059
:10044000806440170B060202246A286A2EA62BEF4E
:1004500002F0010E246E2FA830EF02F0010E241AD4
:100460002FAC35EF02F0010E286E2FAE3AEF02F0FE
:10047000010E281A2850241A286A2EAE42EF02F0E4
:10048000010E286ED8902E36D8902F36282C4AEFA1
:1004900002F02F802452D8B44FEF02F02E80246A4D
:1004A00045AE55EF02F0010E246E45AA5AEF02F058
:1004B000010E241A45A85FEF02F0010E241A45A48C
:1004C00064EF02F0010E241AD890453624504512EC
:1004D00062EF2BF045B071EF02F0800E016EA4EFD9
:1004E00002F045B278EF02F0C00E016EA4EF02F008
:1004F00045B47FEF02F0E00E016EA4EF02F045B6C6
:1005000086EF02F0F00E016EA4EF02F045B88DEF19
:1005100002F0F80E016EA4EF02F045BA94EF02F07B
:10052000FC0E016EA4EF02F045BC9BEF02F0FE0E44
:10053000016EA4EF02F045BEA2EF02F0FF0E016EC5
:10054000A4EF02F0FF0E016E64EF2BF003011C53C9
:10055000D8B403D00001B1EF02F00001C76A230E46
:10056000C66E03011C2D02D004D000010001BEEFB5
:1005700002F00001300EC66E800EC76E000C949A19
:10058000948894961BC31CF3A6EC02F0000C8AEF2F
:100590002BF0A7C231F0246AA8C220F03152D8B49F
:1005A000F7EF02F03150CF5CD8A0DBEF02F0000E85
:1005B000016E5DEF05F09EA0E2EF02F0000E016E0D
:1005C0005DEF05F0CF50315C2A08D8B0ECEF02F0B7
:1005D000FF0E2D6EF5EF02F0CF50315C006ED8901B
:1005E00000342D6E2D502D242D2604EF03F09EA0F7
:1005F00004EF03F09E9020062052D8A404EF03F0ED
:10060000000E016E5DEF05F09E929EA205EF03F0D5
:10061000CCCF22F022A00FEF03F011EF03F0000087
:10062000000022A216EF03F019EF03F00000000013
:10063000000022A41EEF03F023EF03F000000000EF
:1006400000000000000000006B9A6B986B88A4BA51
:100650006E50A4BA6E50A4AA2BEF03F06E50016E38
:1006600001C023F02D062D52D8A439EF03F0CEEFB0
:1006700002F0233C3EEF03F040EF03F02BEF03F0DA
:10068000A4AA40EF03F06ECF23F02D062D52D8A47C
:100690004CEF03F0CEEF02F02350F2CFA9F2F29E1E
:1006A000E2EC00F00201A9BFF28E016E01C022F05F
:1006B00022500708D8B003D0000168EF03F0000112
:1006C00022C029F0080ED8802254246E6FEF03F068
:1006D00022AE6DEF03F0CEEF02F040EF03F0A4AADC
:1006E0006FEF03F06ECF23F02D062D52D8A47BEFD1
:1006F00003F0CEEF02F02350FF0AF2CFAAF2F29EEF
:10070000E2EC00F00201AABFF28E016E01C022F0FD
:1007100022500708D8B003D000019FEF03F000017A
:10072000225024242A6E120E2A5C0C08D8B09BEFAB
:1007300003F0CEEF02F0080E2426A8EF03F0080E17
:10074000242622AEA6EF03F0CEEF02F06FEF03F007
:10075000A4AAA8EF03F06ECF23F02D062D52D8A443
:10076000B4EF03F0CEEF02F02350F2CFA9F2F29EE5
:10077000E2EC00F00201A9BFF28E016E01C022F08E
:1007800022500708D8B003D00001D7EF03F00001D2
:10079000225024242B6E2F0E2B5C0208D8B0D3EFEE
:1007A00003F0CEEF02F0080E2426E0EF03F0080E6F
:1007B000242622AEDEEF03F0CEEF02F0A8EF03F026
:1007C000A4AAE0EF03F06ECF23F02D062D52D8A49B
:1007D000ECEF03F0CEEF02F02350FF0AF2CFAAF2C3
:1007E000F29EE2EC00F00201AABFF28E016E01C09F
:1007F00022F022500708D8B003D000010FEF04F018
:100800000001225024242C6E2A502C5CD10F0208A7
:10081000D8B00DEF04F0CEEF02F018EF04F0080EA0
:10082000242622AE16EF04F0CEEF02F0E0EF03F044
:100830002A502A242B242B24A00F286E2C50282445
:10084000D00F286E030E28262830226E22323F0E4B
:1008500022162838246E0F0E24162838206E2032D7
:100860002032030E20162D6A28BE2D80245022240B
:1008700020242D24006ED8900030286E0C0E285EA7
:1008800029502826070E28162A502B5CD8802A5477
:10089000266E2852D8B47AEF04F09E929E929EA2C1
:1008A0004FEF04F0CCCF22F022A059EF04F05BEF21
:1008B00004F00000000022A260EF04F063EF04F0F7
:1008C00000000000000022A468EF04F06DEF04F0C7
:1008D000000000000000000000000000050E006E97
:1008E000002EFED700D000000000282E73EF04F089
:1008F000CC6A9E929E929EA27BEF04F0CCCF22F017
:1009000022A085EF04F087EF04F00000000022A28F
:100910008CEF04F08FEF04F000000000000022A430
:1009200094EF04F099EF04F00000000000000000D4
:10093000000000006B9A6B986B88A4BA6E50A4BA42
:100940006E50280E2D6E010E226E2252D8B4B9EFD1
:1009500004F0A4AAA9EF04F06E50016E01C022F0C9
:100960002D062D52D8A4B7EF04F05BEF05F0A5EFEC
:1009700004F02252D8A4CDEF04F0A4AABDEF04F0F5
:100980006E50016E01C022F02D062D52D8A4CBEF7F
:1009900004F05BEF05F0B9EF04F02250F008D8A4A2
:1009A000E0EF04F026500408D8B0DEEF04F0A4AA6B
:1009B000D7EF04F06E50016E01C022F0EAEF04F0B0
:1009C00022B8EAEF04F0A4AAE3EF04F06E50016E3F
:1009D00001C022F0286AA4AAEBEF04F06E50016E69
:1009E00001C022F02D062D52D8A4F9EF04F05BEFE0
:1009F00005F0223C01EF05F0D890283628800CEF56
:100A000005F02252D8A40AEF05F0D8902836289095
:100A10000CEF05F0CEEF02F03F0E281628503208FA
:100A2000D8A415EF05F033EF05F0A4AA15EF05F0F3
:100A30006E50016E01C022F02D062D52D8A423EF76
:100A400005F05BEF05F0A4AA23EF05F06E50016EF0
:100A500001C022F02D062D52D8A431EF05F05BEF36
:100A600005F0EBEF04F09E929EA234EF05F0CCCFA0
:100A700022F022A03EEF05F040EF05F0000000005C
:100A800022A245EF05F048EF05F00000000000004D
:100A900022A44DEF05F052EF05F000000000000029
:100AA0000000000000000A0ECF6E220ECE6E010E76
:100AB000016E5DEF05F0CEEF02F0000CCF500008A4
:100AC000D8B067EF05F0000E016EFBEF05F0010EE8
:100AD0000201AA6F0001AAC231F09E903150FD08B8
:100AE000D8B075EF05F0FD0E316E3150CF5CD8A057
:100AF00075EF05F0CEA67AEF05F0CECF22F022A05A
:100B000084EF05F086EF05F00000000022A28BEFD5
:100B100005F08EEF05F000000000000022A493EF26
:100B200005F098EF05F00000000000000000000054
:100B30000000CC6A9E929EA29BEF05F0CCCF22F0E3
:100B400022A0A5EF05F0A7EF05F00000000022A20B
:100B5000ACEF05F0AFEF05F000000000000022A4AC
:100B6000B4EF05F0B9EF05F0000000000000000050
:100B700000000000E30E326EC950206E3250C96E84
:100B8000C7A0C0EF05F08E0E326EC950206E3250F5
:100B9000C96EC7A0C9EF05F0380E326EC950206E7D
:100BA0003250C96EC7A0D2EF05F0E30E326EC950C5
:100BB000206E3250C96EC7A0DBEF05F08F0E326E8B
:100BC000C950206E3250C96EC7A0E4EF05F0C00EC8
:100BD000326EC950206E3250C96EC7A0EDEF05F0DD
:100BE000E00E326EC950206E3250C96EC7A0F6EFCB
:100BF00005F0010E016E000C392C44EF06F0435055
:100C00002E1443240201A66FA76BA6C2A8F200010E
:100C1000C9EC02F00152D8B412EF06F0010E016ED9
:100C20005BEF06F0CF6ACE6A979A8E9A98988F8873
:100C30005EEC05F0979A8E8A98988F888C820201D4
:100C4000A76B020EA86F0001C9EC02F00152D8B4E4
:100C50002EEF06F0010E016E5BEF06F02EC0A7F23C
:100C6000010E0201A86F0001C9EC02F00152D8B4D4
:100C70003EEF06F0010E016E5BEF06F0000E016E16
:100C80005BEF06F05BEF06F043502E1443240201A5
:100C9000A66FA76BA6C2A8F20001C9EC02F0015230
:100CA000D8B457EF06F0010E016E5BEF06F0000EB0
:100CB000016E5BEF06F0A9EF2BF037A064EF06F0B2
:100CC000010E016E66EF06F0000E016E000C5DEC89
:100CD00006F00152D8B47BEF06F050065052D8A46B
:100CE0007BEF06F0379037AC79EF06F0379C7AEF60
:100CF00006F03792516A000C4050F00B006E003A3B
:100D00000F0E00160050036AF2CFA9F2F29EF6EC25
:100D100001F00201A9BFF28E016E01C02AF040501D
:100D20000F0B036AF2CFA8F2F29E0001F6EC01F07D
:100D30000201A8BFF28E016E01C029F0246AA653F9
:100D4000D8B403D0000123EF07F00001979A8E9AE0
:100D500098988F88CF500A08D8B0B3EF06F0000EED
:100D6000016ECFEF07F00B0E0201AA6F0001AAC2BD
:100D700031F09E903150FD08D8B0C1EF06F0FD0E65
:100D8000316E3150CF5CD8A0C1EF06F0CEA6C6EFD1
:100D900006F0CECF22F022A0D0EF06F0D2EF06F080
:100DA0000000000022A2D7EF06F0DAEF06F0000004
:100DB0000000000022A4DFEF06F0E4EF06F00000E0
:100DC00000000000000000000000CC6A9E929EA27D
:100DD000E7EF06F0CCCF22F022A0F1EF06F0F3EF20
:100DE00006F00000000022A2F8EF06F0FBEF06F08C
:100DF00000000000000022A400EF07F005EF07F05C
:100E00000000000000000000000000002AC032F0D6
:100E1000C950206E3250C96EC7A00CEF07F029C030
:100E200032F0C950206E3250C96EC7A015EF07F0DE
:100E3000979A8E8A98988F888C82000E016ECFEFD9
:100E400007F0CFEF07F0979A8E8A98988F888C9248
:100E5000CF500A08D8B031EF07F0000E016ECFEF87
:100E600007F00B0E0201AA6F0001AAC231F09E909A
:100E70003150FD08D8B03FEF07F0FD0E316E315014
:100E8000CF5CD8A03FEF07F0CEA644EF07F0CECF5F
:100E900022F022A04EEF07F050EF07F00000000014
:100EA00022A255EF07F058EF07F000000000000005
:100EB00022A45DEF07F062EF07F0000000000000E1
:100EC000000000000000CC6A9E929EA265EF07F031
:100ED000CCCF22F022A06FEF07F071EF07F00000F7
:100EE000000022A276EF07F079EF07F00000000083
:100EF000000022A47EEF07F083EF07F0000000005F
:100F000000000000000000006B9A6B986B88A4BA88
:100F10006E50A4BA6E50286A28500708D8A0C6EFB1
:100F200007F0A4AA91EF07F06E50016E01C022F005
:100F30002250F2CFA7F2F29E6CEC01F00201A7BFA3
:100F4000F28E016E01C02BF00001A4AAA5EF07F0FC
:100F50006E50016E01C022F02250F2CFA7F2F29E35
:100F60006CEC01F00201A7BFF28E016E01502B263E
:100F7000D89024322B500108D8A003D00001C3EF31
:100F800007F00001248E282A8CEF07F0979A8E8AAA
:100F900098988F888C822450016ECFEF07F0000C58
:100FA0000201FA51FC03F3CF01F0F4CF00F0FD038E
:100FB000F3500026FB51FC03F3500020026E0001A9
:100FC000000C979A8E8A98988F888C928B9AC69AE2
:100FD0008B9ACF500E08D8B0F3EF07F0C68A000EF8
:100FE000016EE1EF08F00F0E0201AA6F0001AAC224
:100FF00031F09E903150FD08D8B001EF08F0FD0EA1
:10100000316E3150CF5CD8A001EF08F0CEA606EFCC
:1010100008F0CECF22F022A010EF08F012EF08F077
:101020000000000022A217EF08F01AEF08F00000FD
:101030000000000022A41FEF08F024EF08F00000D9
:1010400000000000000000000000CC6A9E929EA2FA
:1010500027EF08F0CCCF22F022A031EF08F033EFD9
:1010600008F00000000022A238EF08F03BEF08F083
:1010700000000000000022A440EF08F045EF08F057
:101080000000000000000000000000006B9A6B9858
:101090006B88A4BA6E50A4BA6E50226A246A020108
:1010A000A637A737A637A737A637A737A637A73754
:1010B000A637A737A637A737C00EA6170001A4AAE0
:1010C0005FEF08F06E50016E286A28500A08D8A019
:1010D000C6EF08F00201A7BF03D0000178EF08F0C7
:1010E0000001979A8E9A98988F888B8A7EEF08F0E5
:1010F000979A8E8A98988F888C928B9A2250F2CFEA
:10110000A8F2F29E6CEC01F00201A8BFF28E016E13
:101110000150242624500708D8A003D0000195EFE1
:1011200008F000012806C6EF08F0A4AA95EF08F021
:101130006E50016E01C022F0A4AA9CEF08F06E5020
:10114000016E01C022F0A4AAA3EF08F06E50016E58
:1011500001C022F02250F2CFA8F2F29E6CEC01F016
:101160000201A8BFF28E016E01C024F00001A4AA02
:10117000B7EF08F06E50016E01C022F0D890020166
:10118000A637A7370001282A65EF08F08B9AC68A90
:10119000979A8E8A98988F888C8228500B08D8A4AA
:1011A000D6EF08F0010E016EE1EF08F028500908B3
:1011B000D8A0DFEF08F0020E016EE1EF08F0000E9C
:1011C000016E000C000CC68A979A8E9A98988F88A8
:1011D0009551CB08D8A4FFEF08F09651B808D8A4D1
:1011E000FFEF08F001019653D8A403D00001FFEFF0
:1011F00008F0000101019385000102EF09F00101EF
:1012000093950001180E0201AA6F0001AAC231F0E5
:101210009E903150FD08D8B010EF09F0FD0E316EF0
:101220003150CF5CD8A010EF09F0CEA615EF09F031
:10123000CECF22F022A01FEF09F021EF09F000002D
:10124000000022A226EF09F029EF09F000000000BB
:10125000000022A42EEF09F033EF09F00000000097
:101260000000000000000000CC6A9E929EA236EFB3
:1012700009F0CCCF22F022A040EF09F042EF09F0B4
:101280000000000022A247EF09F04AEF09F0000039
:101290000000000022A44FEF09F054EF09F0000015
:1012A00000000000000000000000AA0E326EC950CD
:1012B000206E3250C96ECA0E326EC7A05DEF09F0C3
:1012C000C950206E3250C96E2EA46BEF09F0170E74
:1012D000326E6DEF09F0740E326EC7A06DEF09F03B
:1012E000C950206E3250C96E32C029F00C0E512404
:1012F000020F326EC7A07AEF09F0C950206E32504B
:10130000C96E246A24500708D8A099EF09F02A6A08
:1013100029A68CEF09F02A2A29AC90EF09F02A2A95
:10132000D89029362AA096EF09F02980242A82EF46
:1013300009F029509519326EC7A09CEF09F0C950E9
:10134000206E3250C96E246A24500708D8A0BBEF23
:1013500009F02A6A29A6AEEF09F02A2A29ACB2EFD1
:1013600009F02A2AD89029362AA0B8EF09F0298056
:10137000242AA4EF09F029509619326EC7A0BEEFB7
:1013800009F0C950206E3250C96E246A24500708F3
:10139000D8A0DDEF09F02A6A29A6D0EF09F02A2AA1
:1013A00029ACD4EF09F02A2AD89029362AA0DAEFFE
:1013B00009F02980242AC6EF09F02950AA0A326EC2
:1013C000C7A0E0EF09F0C950206E3250C96E246A00
:1013D00024500708D8A0FFEF09F02A6A29A6F2EFE7
:1013E00009F02A2A29ACF6EF09F02A2AD8902936E2
:1013F0002AA0FCEF09F02980242AE8EF09F02950FF
:10140000AA0A326EC7A002EF0AF0C950206E32500D
:10141000C96E246A24500708D8A021EF0AF02A6A6E
:1014200029A614EF0AF02A2A29AC18EF0AF02A2A72
:10143000D89029362AA01EEF0AF02980242A0AEF24
:101440000AF02950AA0A326EC7A024EF0AF0C95048
:10145000206E3250C96E246A24500708D8A043EF8A
:101460000AF02A6A29A636EF0AF02A2A29AC3AEFAE
:101470000AF02A2AD89029362AA040EF0AF02980BB
:10148000242A2CEF0AF02950AA0A326EC7A046EF90
:101490000AF0C950206E3250C96E010193B503D0D5
:1014A00000015BEF0AF00001E2EC08F0378A010E60
:1014B000016E4BEF0BF0286A28500B08D8A08DEF77
:1014C0000AF0246A24500708D8A079EF0AF02A6AA3
:1014D00029A66CEF0AF02A2A29AC70EF0AF02A2A12
:1014E000D89029362AA076EF0AF02980242A62EFC4
:1014F0000AF0036A2850210FE96E010E0320EA6EFC
:10150000EF502918326EC7A083EF0AF0C950206E41
:101510003250C96E282A5CEF0AF051C02DF0286ABB
:101520002D50285CD8B0C1EF0AF0246A2450070877
:10153000D8A0ADEF0AF02A6A29A6A0EF0AF02A2A5D
:1015400029ACA4EF0AF02A2AD89029362AA0AAEFBB
:101550000AF02980242A96EF0AF0036A2850950F92
:10156000E96E000E0320EA6EEF502918326EC7A014
:10157000B7EF0AF0C950206E3250C96E282A90EF9A
:101580000AF0246A24500708D8A0D9EF0AF02A6A82
:1015900029A6CCEF0AF02A2A29ACD0EF0AF02A2A91
:1015A000D89029362AA0D6EF0AF02980242AC2EF43
:1015B0000AF0295001013B19326E0001C7A0DEEF8D
:1015C0000AF0C950206E3250C96E246A24500708B0
:1015D000D8A0FDEF0AF02A6A29A6F0EF0AF02A2A1D
:1015E00029ACF4EF0AF02A2AD89029362AA0FAEF7B
:1015F0000AF02980242AE6EF0AF0295001013C195B
:10160000326E0001C7A002EF0BF0C950206E3250BD
:10161000C96E01019753D8A403D000013DEF0BF030
:101620000001C70E326EC7A013EF0BF0C950206E39
:101630003250C96E246A24501F08D8A02BEF0BF03B
:10164000326AC7A021EF0BF0C950206E3250C96E2C
:10165000242A1BEF0BF0246A24501F08D8A03DEF6A
:101660000BF0FF0E326EC7A033EF0BF0C950206EA7
:101670003250C96E242A2CEF0BF0326AC7A03EEF1D
:101680000BF0C950206E3250C96EC7A045EF0BF069
:10169000378A010E016EE5EF2CF037AC55EF0BF0F9
:1016A000379C3790516A58EF0BF037823790516A68
:1016B000E7EF2CF0206AA4AA5BEF0BF06E50016EEE
:1016C00001C022F02250E709FF08D8A46CEF0BF00C
:1016D000010E226E6DEF0BF0226A22A071EF0BF06B
:1016E000208EA4AA71EF0BF06E50016E01C022F0A3
:1016F0002250E709FF08D8A482EF0BF0010E226EFA
:1017000083EF0BF0226A22A087EF0BF0208CA4AAB3
:1017100087EF0BF06E50016E01C022F02250E709F6
:10172000FF08D8A498EF0BF0010E226E99EF0BF092
:10173000226A22A09DEF0BF0208AA4AA9DEF0BF055
:101740006E50016E01C022F02250E709FF08D8A4B4
:10175000AEEF0BF0010E226EAFEF0BF0226A22A06B
:10176000B3EF0BF02088A4AAB3EF0BF06E50016E1C
:1017700001C022F02250E709FF08D8A4C4EF0BF003
:10178000010E226EC5EF0BF0226A22A0C9EF0BF00A
:101790002086A4AAC9EF0BF06E50016E01C022F0A2
:1017A0002250E709FF08D8A4DAEF0BF0010E226EF1
:1017B000DBEF0BF0226A22A0DFEF0BF02084A4AA5B
:1017C000DFEF0BF06E50016E01C022F02250E709EE
:1017D000FF08D8A4F0EF0BF0010E226EF1EF0BF032
:1017E000226A22A0F5EF0BF02082A4AAF5EF0BF0FD
:1017F0006E50016E01C022F02250E709FF08D8A404
:1018000006EF0CF0010E226E07EF0CF0226A22A008
:101810000BEF0CF02080000C206AA4AA0DEF0CF056
:101820006E50016E01C022F02A6A29A619EF0CF051
:101830002A2A29AC1DEF0CF02A2AD89029362AA092
:1018400023EF0CF029802250E709FF08D8A42DEFE0
:101850000CF0010E226E2EEF0CF0226A2950221A93
:1018600022A034EF0CF0208EA4AA34EF0CF06E50BE
:10187000016E01C022F02A6A29A640EF0CF02A2A44
:1018800029AC44EF0CF02A2AD89029362AA04AEF36
:101890000CF029802250E709FF08D8A454EF0CF07F
:1018A000010E226E55EF0CF0226A2950221A22A056
:1018B0005BEF0CF0208CA4AA5BEF0CF06E50016E75
:1018C00001C022F02A6A29A667EF0CF02A2A29AC67
:1018D0006BEF0CF02A2AD89029362AA071EF0CF071
:1018E00029802250E709FF08D8A47BEF0CF0010EF5
:1018F000226E7CEF0CF0226A2950221A22A082EF7D
:101900000CF0208AA4AA82EF0CF06E50016E01C088
:1019100022F02A6A29A68EEF0CF02A2A29AC92EF2F
:101920000CF02A2AD89029362AA098EF0CF02980AA
:101930002250E709FF08D8A4A2EF0CF0010E226E96
:10194000A3EF0CF0226A2950221A22A0A9EF0CF072
:101950002088A4AAA9EF0CF06E50016E01C022F0FD
:101960002A6A29A6B5EF0CF02A2A29ACB9EF0CF0A7
:101970002A2AD89029362AA0BFEF0CF029802250BD
:10198000E709FF08D8A4C9EF0CF0010E226ECAEFD8
:101990000CF0226A2950221A22A0D0EF0CF02086E7
:1019A000A4AAD0EF0CF06E50016E01C022F02A6A9A
:1019B00029A6DCEF0CF02A2A29ACE0EF0CF02A2A49
:1019C000D89029362AA0E6EF0CF029802250E709AA
:1019D000FF08D8A4F0EF0CF0010E226EF1EF0CF02E
:1019E000226A2950221A22A0F7EF0CF02084A4AA20
:1019F000F7EF0CF06E50016E01C022F02A6A29A6A2
:101A000003EF0DF02A2A29AC07EF0DF02A2AD8900F
:101A100029362AA00DEF0DF029802250E709FF0892
:101A2000D8A417EF0DF0010E226E18EF0DF0226A08
:101A30002950221A22A01EEF0DF02082A4AA1EEF28
:101A40000DF06E50016E01C022F02A6A29A62AEF1D
:101A50000DF02A2A29AC2EEF0DF02A2AD89029362B
:101A60002AA034EF0DF029802250E709FF08D8A4FE
:101A70003EEF0DF0010E226E3FEF0DF0226A29506D
:101A8000221A22A045EF0DF02080000C286A285071
:101A90000708D8A0BBEF0DF0A4AA4CEF0DF06E50D4
:101AA000016E2A6A29A656EF0DF02A2A29AC5AEFB0
:101AB0000DF02A2AD89029362AA060EF0DF029804F
:101AC000D89028340201AB6BAA6F820EAA25E96E6A
:101AD000010EAB21EA6EEF502B5CD8B403D00001AD
:101AE000A4EF0DF00001A4AA73EF0DF06E50016E8B
:101AF0002A6A29A67DEF0DF02A2A29AC81EF0DF084
:101B00002A2AD89029362AA087EF0DF02980D8906C
:101B100028340201AB6BAA6F010EAA25016E000EDC
:101B2000AB21036E0150820FE96E010E0320EA6EB5
:101B3000EF502C5CD8B403D00001A2EF0DF00001EF
:101B4000010E246EB8EF0DF0A4AAA4EF0DF06E50B4
:101B5000016E2A6A29A6AEEF0DF02A2A29ACB2EF4F
:101B60000DF02A2AD89029362AA0B8EF0DF0298046
:101B7000282A47EF0DF0286A28500F08D8A0EFEF69
:101B80000DF0A4AAC1EF0DF06E50016E2A6A29A6CD
:101B9000CBEF0DF02A2A29ACCFEF0DF02A2AD890EE
:101BA00029362AA0D5EF0DF029802B50CB08D8A4D8
:101BB000ECEF0DF02C50B808D8A4ECEF0DF00101BB
:101BC0009653D8A403D00001ECEF0DF00001010101
:101BD0009385010E246E0001282ABCEF0DF03FEF23
:101BE0001EF0B9EF1EF00201F76BF66BF86B000107
:101BF0000201F8510B08D8B003D0000135EF0EF008
:101C00000001F7C2F9F2F6C2F7F2F9C2F6F2036A7E
:101C10000201F851F125E96EF2510320EA6EEF500E
:101C2000F71BF739006E0F0E00160050F71BF7393F
:101C3000006EF00E00160050F61BF731006E0032F9
:101C400000321F0E00160050F61BF739006EF00E22
:101C500000160050006ED89000360050F71B0001AF
:101C60000201F82B0001F8EF0DF00201F86B000102
:101C70000201F551F85DD8A003D0000175EF0EF018
:101C80000001F7C2F9F2F6C2F7F2F9C2F6F2036AFE
:101C90000201F851F325E96EF4510320EA6EEF508A
:101CA000F71BF739006E0F0E00160050F71BF739BF
:101CB000006EF00E00160050F61BF731006E003279
:101CC00000321F0E00160050F61BF739006EF00EA2
:101CD00000160050006ED89000360050F71B00012F
:101CE0000201F82B000138EF0EF00201FB6BF6C287
:101CF000FAF2010EFD6FFC6B0001D0EC07F002C0A0
:101D0000FBF201C0FAF20201F751FA25016E000E52
:101D1000FB21036E0150016E0350026E0001000CA6
:101D20000201F36BF46B00010201F4510708D8B013
:101D300003D00001C0EF0EF000010201F451F225C2
:101D4000036AF025E96EF1510320EA6EEFCFF6F257
:101D5000030EF425036A210FE96E010E0320EA6EDB
:101D6000EF50F65DD8B403D00001BBEF0EF00001D8
:101D70000201F32B00010201F42B000194EF0EF09D
:101D80000201F3510808D8B403D00001CDEF0EF0E2
:101D90000001010E016E02EF0FF00201F36BF46B14
:101DA00000010201F4510708D8B003D00001F3EF9D
:101DB0000EF000010201F451F225036AF025E96EEC
:101DC000F1510320EA6EEF3C02D004D00001000183
:101DD000EEEF0EF000010201F32B00010201F42BE3
:101DE0000001D1EF0EF00201F3510808D8B403D07E
:101DF000000100EF0FF00001010E016E02EF0FF085
:101E0000000E016E000C9D90379E37A00BEF0FF077
:101E100037903792379C979A8E9A98988F98000CA3
:101E200003EC0FF0000C10EC0FF0000C0201B56B8E
:101E3000D1B0B52BB551016E00014FEF1BF0030E71
:101E4000F66EF76A300EF86E0800F5CFB5F2F86A54
:101E5000D8900201B533B551016E000153EF1BF06C
:101E6000D190000C0201B5510708D8A003D00001A1
:101E70003EEF0FF000010201B56B0001D8900201A6
:101E8000B535FE0BB66F000130EC0FF00201B76BF9
:101E9000F2BEB72BB753D8A403D0000156EF0FF012
:101EA0000001F29CF29EF2BE52EF0FF0030EF66EAE
:101EB000F76A300EF86EB6C2F5FF0C00A68EA68C3F
:101EC000A684550EA76EAA0EA76EA682000000007B
:101ED0000000F86AA6940201B753D8A403D0000109
:101EE00075EF0FF00001C00EF212000CD180000C53
:101EF000BDC242F08D80200E286E2852D8B488EFE3
:101F00000FF098908F8098908F9028067DEF0FF0BB
:101F10008D900201BD53D8A403D000019AEF0FF0B9
:101F2000000198908F8098908F900201BD0700016A
:101F300089EF0FF0000CB6C2BDF278EC0FF0A5EF00
:101F40000FF0B5C2B6F29BEF0FF0B9EF1BF0B5C2C0
:101F50003AF0000CB5C243F0D5EF1BF001019A6BCB
:101F6000996B9C6B9B6B9E6B9D6BA06B9F6BA26B2D
:101F7000A16BAB6B010EAA6F470EA96FA86BA36B89
:101F8000A46BA56B9397A66BA76B93990001000CAC
:101F9000000CFF0ED880CF540201F56BF46FF5C230
:101FA000FBF2F4C2FAF2FD6B330EFC6F0001D0ECD1
:101FB00007F002C0F3F201C0F2F20201F251016E29
:101FC000F351026E000126EF10F0016A026A006A06
:101FD000036A0201F751D8B403D00001F7EF0FF004
:101FE000F651D8A403D0000121EF10F00001100E2B
:101FF0000201F86F0001D8900201F437F53700367E
:102000000336F751035CD8B403D000010BEF10F096
:10201000F651005C0001D8A017EF10F00201F65154
:10202000005ED8A00306F751035ED8800001013698
:1020300002360201F82F02D004D000010001FBEFAC
:102040000FF000013BEF10F0C9EF0FF002C0F1F20A
:1020500001C0F0F2C80E0201F05DF26F000EF159FE
:10206000F36FF3C2F5F2F2C2F4F2F76B320EF66FD1
:102070000001E5EF0FF00150016E000C006A016AEB
:10208000026A036A03012B6B2C6B2D6B2E6B2A519A
:10209000291128112711D8A403D0000198EF10F0BE
:1020A0000001200E03012F6F0001D8900301233798
:1020B0002437253726372B372C372D372E372A5103
:1020C0002E5DD8B403D0000177EF10F029512D5DBB
:1020D000D8B403D0000177EF10F028512C5DD8B4AC
:1020E00003D0000177EF10F027512B5D0001D8A03D
:1020F0008BEF10F0030127512B5F2851D8A0283D0A
:102100002C5F2951D8A0293D2D5F2A51D8A02A3D06
:102110002E5FD880000100360136023603360301F7
:102120002F2F02D004D00001000155EF10F0000164
:10213000030EEA6E2B0EE96E000C03011251165DC0
:10214000D8B003D000012BEF11F00001D8A4CAEFE2
:1021500010F003011151155DD8B003D000012BEF31
:1021600011F00001D8A4CAEF10F003011051145D62
:10217000D8B003D000012BEF11F00001D8A4CAEFB2
:1021800010F0030113510F5DD8A003D000012BEF15
:1021900011F0000112C326F311C325F310C324F379
:1021A0000FC323F303012A6B296B010E286F080E5E
:1021B000276F00013EEC10F0EFCF17F3ECCF18F3D0
:1021C000ECCF19F3ECCF1AF3ED52ED52ED520301BF
:1021D0000F51135D006E10511459016E11511559B4
:1021E000026E12511659036E005017251B6F0150D5
:1021F00018211C6F025019211D6F03501A211E6FE8
:102200001E53D8B403D0000125EF11F000010301E3
:102210001D53D8B403D0000125EF11F000010301D4
:102220001C510008D8A003D0000129EF11F00001D3
:10223000FF0AD8A425EF11F003011B510708D8A00D
:1022400003D0000129EF11F00001000E016E8CEFA8
:1022500011F08AEF11F016C326F315C325F314C34A
:1022600024F313C323F303012A6B296B010E286F98
:10227000080E276F00013EEC10F0EFCF17F3ECCF04
:1022800018F3ECCF19F3ECCF1AF3ED52ED52ED52F7
:10229000030113510F5D006E14511059016E155159
:1022A0001159026E16511259036E005017251B6FFB
:1022B000015018211C6F025019211D6F03501A2163
:1022C0001E6F1E53D8B403D0000186EF11F0000139
:1022D00003011D53D8B403D0000186EF11F00001B3
:1022E00003011C510008D8A003D000018AEF11F0AF
:1022F0000001FF0AD8A486EF11F003011B51070863
:10230000D8A003D000018AEF11F00001000E016E89
:102310008CEF11F0010E016E000C010E03011B6F1A
:102320000001BFEC02F08C96000CC9CF26F324C349
:10233000C9FFC7A099EF11F0C9CF25F303012551BB
:10234000016E0001000C8C86000C8DEC11F0570E14
:102350000301246F000195EC11F00301246B0001CF
:1023600095EC11F001C017F3A3EC11F0030117BFB6
:1023700003D00001C3EF11F00001010E016EC7EFA1
:1023800011F0C7EF11F0000E016EC7EF11F0000C55
:1023900003012F6B306B010E316FDA6AD96A030EBD
:1023A000346F270E336F0001030EEA6E2B0EE96EB9
:1023B00034C3E2FF33C3E1FF31C332F3D890E550B9
:1023C000EE02F35003012F23F4503023322F02D0BA
:1023D00004D000010001DEEF11F02FC3DEFF30C397
:1023E0002FF3306BD8B0302B332BD8B4342B312BA8
:1023F00031510508D8B403D00001D4EF11F0000129
:1024000030EF12F01EC326F31DC325F31CC324F3C3
:102410001BC323F303012A6B296B010E286F080EDF
:10242000276F00013EEC10F001C020F300C01FF345
:102430000301266B256B20C324F31FC323F326C39C
:102440002AF325C329F324C328F323C327F32E6BD0
:102450002D6B010E2C6F080E2B6F0001C8EF11F0D1
:10246000005003011B5D006E01501C59016E0250AB
:102470001D59026E03501E59036E01C022F300C0A5
:1024800021F3D8901F37203722B103D000014DEF40
:1024900012F0000103011F810001030E036E200EE4
:1024A000E96E03C0EAFFEFCF23F323C324F395ECD7
:1024B00011F0030E036E1F0EE96E03C0EAFFEFCFAB
:1024C00023F323C324F395EC11F0030E036E210EC6
:1024D000E96E03C0EAFFEFCF23F323C324F395ECA7
:1024E00011F0000C8DEC11F0550E0301246F00016A
:1024F00095EC11F01AC31EF319C31DF318C31CF396
:1025000017C31BF302EC12F0A3EC11F0E6EF12F08C
:10251000A5EC11F00152D8B488EF12F0000C8DEC4C
:1025200011F0830E0301246F000195EC11F01AC322
:102530001EF319C31DF318C31CF317C31BF302ECDE
:1025400012F0A3EC11F0000C8DEC11F0530E03010E
:10255000246F000195EC11F01AC31EF319C31DF38B
:1025600018C31CF317C31BF302EC12F0A3EC11F019
:102570000CEF13F08DEC11F0860E0301246F0001B7
:1025800095EC11F01AC31EF319C31DF318C31CF305
:1025900017C31BF302EC12F0A3EC11F0000CA5EC36
:1025A00011F00152D8A4D9EF12F0000E016E26EFFF
:1025B00013F01F2C02EF13F016C31AF315C319F30F
:1025C00014C318F313C317F372EF12F088EC12F070
:1025D0001EB0F6EF12F012C31AF311C319F310C3B1
:1025E00018F30FC317F38FEC12F01E80020E1F6E4C
:1025F00016C31DF015C31CF014C31BF013C31AF04F
:1026000026EF13F016C31AF315C319F314C318F306
:1026100013C317F3A4EF12F088EC12F01EB01CEFF6
:1026200013F012C31AF311C319F310C318F30FC335
:1026300017F3BAEC12F01E80010E1F6E16C31DF0C8
:1026400015C31CF014C31BF013C31AF0000C0EC307
:1026500026F30DC325F30CC324F30BC323F30301AB
:102660002A6B296B010E286F080E276F00013EECC4
:1026700010F0EFCF00F0ECCF01F0ECCF02F0ECCF98
:1026800003F0ED52ED52ED520150026E0050016E1A
:10269000000C030102510008D8A003D0000163EF31
:1026A00013F00001FF0AD8A45FEF13F003010151FA
:1026B0000808D8A003D0000163EF13F00001000E5A
:1026C000016EB9EF14F0FEC212F3FDC211F3FCC2A9
:1026D00010F3FBC20FF31DC016F31CC015F31BC093
:1026E00014F31AC013F39DEC10F00152D8A495EF27
:1026F00013F0A5EC11F00152D8A483EF13F0000EF3
:10270000016EB9EF14F01DC012F31CC011F31BC011
:1027100010F31AC00FF3FEC216F3FDC215F3FCC28C
:1027200014F3FBC213F3CFEC12F001C300F002C3A9
:1027300001F0026A036A00500201FB2503010B6FDE
:1027400001500201FC2103010C6F02500201FD2126
:1027500003010D6F03500201FE2103010E6FFEC243
:1027600012F3FDC211F3FCC210F3FBC20FF30EC350
:1027700016F30DC315F30CC314F30BC313F30001CD
:102780009DEC10F00152D8A4D0EF13F0A5EC11F09D
:102790000152D8A4D0EF13F0000E016EB9EF14F07F
:1027A000FEC20EF3FDC20DF3FCC20CF3FBC20BF331
:1027B00027EC13F002C006F301C005F3FEC20AF3D2
:1027C000FDC209F3FCC208F3FBC207F38DEC11F064
:1027D0001F2CF3EF13F0840E0301246F000195EC1E
:1027E00011F0F9EF13F0870E0301246F000195EC4F
:1027F00011F003011E6B1D6B06C31CF305C31BF315
:10280000000102EC12F00301046B036B00010301F1
:102810000451025DD8B003D00001B5EF14F00001FF
:10282000D8A41CEF14F003010151035DD8A003D01C
:102830000001B5EF14F00001030105510808D8B4F8
:1028400003D0000183EF14F000010301062D02D034
:1028500004D00001000183EF14F000010301066BB6
:10286000056B0001A3EC11F0A5EC11F00152D8A406
:102870003EEF14F0000E016EB9EF14F0010E0301EB
:10288000075D0B6F000E08590C6F000E09590D6F94
:10289000000E0A590E6F0EC312F30DC311F30CC3D1
:1028A00010F30BC30FF30AC316F309C315F308C3E0
:1028B00014F307C313F30001CFEC12F08DEC11F009
:1028C0000301066B056B1F2C02D004D00001000130
:1028D00073EF14F00001840E0301246F000195ECE6
:1028E00011F079EF14F0870E0301246F000195ECCD
:1028F00011F003011E6B1D6B06C31CF305C31BF314
:10290000000102EC12F000C303F00201FF51E96E76
:1029100003C0EAFFEFCF0BF30BC324F3000195ECE8
:1029200011F01E900AC31DF009C31CF008C31BF070
:1029300007C31AF00301052BD8B4062B010E072795
:10294000D8B0082BD8B4092BD8B40A2B0201FF2B1E
:10295000D8A403D00301002B020100010301032BC3
:10296000D8B4042B000107EF14F0A3EC11F0010E12
:10297000016ED5EF14F00201FA6BF96BF2C2F8F2B6
:10298000F1C2F7F2FAC2FEF2F9C2FDF2F8C2FCF2AD
:10299000F7C2FBF2F4C200F3F3C2FFF2F6C202F395
:1029A000F5C201F3000149EF13F00152D8B4DDEF95
:1029B00014F0000E016EDFEF14F0010E016E000C3A
:1029C0005DEC06F00152D8B4F0EF14F037ACEDEF47
:1029D00014F0379C3790EFEF14F037923790516A2C
:1029E000F9EF14F01E9A0101926B816B0001E0EF88
:1029F00014F0000C0201F053D8B403D0000106EF2C
:102A000015F00001010E0201F06F000137BE0DEF5D
:102A100015F0000E016E35EF15F037A014EF15F02C
:102A2000000E016E35EF15F051C022F142C023F1C6
:102A300052C02CF1010E0201F26F210EF16FF46B06
:102A4000950EF36F51C0F5F20001F3EC0DF002C0EA
:102A500054F001C053F054C03BF153C03CF1F0C2FC
:102A600050F0522A3780010E016E000C0201EF6B0C
:102A70000001020EEA6EB50EE96EE26ADB0EE16E4F
:102A80003A0E016EE6CFEEFF012E42EF15F0020E78
:102A90000201F16FB50EF06FF26B000190EC0EF0D9
:102AA0000152D8B4E8EF16F00201BD53D8B403D0F8
:102AB000000157EF16F000010201BE53D8B403D055
:102AC000000157EF16F0000101019D53D8B403D067
:102AD000000157EF16F0000101019E53D8B403D056
:102AE000000157EF16F000010201F16BC6C2F0F2CF
:102AF000F0C29CF101019B6B036A0201C751010105
:102B00009B2703509C239C510F08D8B003D0000191
:102B10009BEF15F00001D8A497EF15F001019B5130
:102B2000A008D8B003D000019BEF15F00001010E02
:102B30000201EF6F00010201BF2D02D004D000019D
:102B4000000121EF16F000010201C0514308D8B482
:102B500003D0000121EF16F000010201C151140859
:102B6000D8B403D0000121EF16F000010201EF53A9
:102B7000D8A403D0000121EF16F00001AEEC0FF055
:102B80000201F16BC2C2F0F2F0C29AF10101996B3D
:102B9000036A0201C3510101992703509A23C4C259
:102BA000A6F1C5C2A7F10001C8EC0FF024EC10F0AB
:102BB00001502508D8B01FEF16F0A2C1F2F2A1C152
:102BC000F1F2020E0201F46FC40EF36FF66B250EE4
:102BD000F56F0001BBEC14F00152D8A41FEF16F002
:102BE000400E0101A127000EA223A06B010E9F6FD2
:102BF0009E6B020E9D6F00015DEC06F00152D8B491
:102C000004EF16F0F2EC14F0A50E956F0E0E966F11
:102C1000976BC60E986F580E996F020E9A6F9B6B4A
:102C2000010E9C6F080E516E1E0E0201F06F000126
:102C3000FAEC14F00152D8B41FEF16F0378C55EFB0
:102C400016F0A50E956F0E0E966F976BC60E986FC9
:102C5000580E996F060E9A6FFF0E9B6FFF0E9C6FBA
:102C6000010E9D6F430E9E6F140E9F6FEFC2A0F07A
:102C7000010E036E9B0EE96E03C0EAFFEF50A26FD8
:102C8000010E036E9C0EE96E03C0EAFFEF50A16FC8
:102C90000E0E516E1E0E0201F06F0001FAEC14F0E0
:102CA0000152D8B455EF16F0378CE8EF16F0010E4C
:102CB000036E9E0EE96E03C0EAFFEF500201BD5D98
:102CC000D8B403D00001E8EF16F00001010E036E46
:102CD0009D0EE96E03C0EAFFEF500201BE5DD8B45D
:102CE00003D00001E8EF16F00001C8EC0FF024EC6F
:102CF00010F001502008D8B09BEF16F0A2C1F2F2FC
:102D0000A1C1F1F2020E0201F46FBF0EF36FF66B78
:102D1000200EF56F0001BBEC14F00152D8A49BEF1C
:102D200016F0200E0101A127000EA2239EC1A0F1E2
:102D30009DC19FF100010101A0519A5DD8B003D05F
:102D40000001E0EF16F00001D8A4B0EF16F0010189
:102D500099519F5DD8A003D00001E0EF16F000016B
:102D60005DEC06F00152D8B4B8EF16F0F2EC14F0B6
:102D7000A50E956F0E0E966F976BC60E986F580E38
:102D8000996F020E9A6F010E036E9E0EE96E03C0DC
:102D9000EAFFEF509B6F010E036E9D0EE96E03C0BC
:102DA000EAFFEF509C6F080E516E1E0E0201F06F8D
:102DB0000001FAEC14F00152D8B4E0EF16F0378CB1
:102DC000020E01019D27000E9E23A46BA36B000140
:102DD000010193890001E7EF1BF0A69CA198B8C2FE
:102DE000A9FFB9C2A8FFA69EA684550EA76EAA0E7B
:102DF000A76EA682A1A8FAEF16F0A694A19827EFD5
:102E000017F0A69CB9C2A9FFA69EA680A850016E85
:102E1000000C0201B56B00010201B5510708D8B0E2
:102E200003D0000143EF17F00001060E0201B525A3
:102E3000036AD50FE96E000E0320EA6EEFCFB7F2FA
:102E4000B5C2B8F2B7C2B9F20001EDEF16F0030E49
:102E50000201B525036A210F016E010E0322015004
:102E6000B76F03C0B8F2B5C2B9F2000101EC17F0B8
:102E7000B8C2EAFFB7C2E9FF01C0EFFF0201B52BFC
:102E800000010CEF17F05DEC06F00152D8B44BEFE7
:102E900017F0F2EC14F0A50E956F0E0E966F976B6F
:102EA0006D0E986FC00E996F9A6B060E516E1E0EC6
:102EB0000201F06F0001FAEC14F00152D8B462EF95
:102EC00017F0378CF6EF1BF0B5C244F00201B55392
:102ED000D8B403D000016DEF17F00001000C8B9403
:102EE000000C979C8E9C000C969E8D9EFA0E020103
:102EF000CD6F0001CDC234F0020E345E0000000040
:102F00000000000000000000342E82EF17F0FA0EDF
:102F10000201CD6F0001CDC234F0020E345E00001C
:102F200000000000000000000000342E93EF17F0B6
:102F3000968E460E0201CD6F0001CDC234F0020E16
:102F4000345E000000000000000000000000342E8D
:102F5000A5EF17F084AEB3EF17F0010E016EB7EFD7
:102F600017F0B7EF17F0000E016EB7EF17F001C0C2
:102F7000CAF2FA0E0201CD6F0001CDC234F0020E8A
:102F8000345E000000000000000000000000342E4D
:102F9000C5EF17F0FA0E0201CD6F0001CDC234F07B
:102FA000020E345E0000000000000000000000007F
:102FB000342ED6EF17F00201CA2D02D004D0000142
:102FC0000001EAEF17F00001000E016EEEEF17F0BE
:102FD000EEEF17F0010E016EEEEF17F0000C02019C
:102FE000CC6B00010201CC510708D8B003D000011E
:102FF0005DEF18F00001969E8D9ECBC200F002019D
:10300000CC51016ED8A403D000010DEF18F00001DF
:10301000D8900032012E08EF18F000A035EF18F01C
:103020000A0E0201CD6F0001CDC234F0020E345EF3
:10303000000000000000000000000000342E1CEF23
:1030400018F0968E4B0E0201CD6F0001CDC234F008
:10305000020E345E000000000000000000000000CE
:10306000342E2EEF18F058EF18F0500E0201CD6FED
:103070000001CDC234F0020E345E000000000000FA
:10308000000000000000342E41EF18F0968E050E6F
:103090000201CD6F0001CDC234F0020E345E00009B
:1030A00000000000000000000000342E53EF18F074
:1030B0000201CC2B0001F2EF17F0000C0201CB6BE8
:1030C000CA6B00010201CA510708D8B003D0000141
:1030D000BDEF18F00001969E8D9E080E0201CD6F87
:1030E0000001CDC234F0020E345E0000000000008A
:1030F000000000000000342E79EF18F0968E040EC8
:103100000201CD6F0001CDC234F0020E345E00002A
:1031100000000000000000000000342E8BEF18F0CB
:1031200084AEA7EF18F0010E006E0201CA51016EC5
:10313000D8A403D00001A3EF18F00001D890003606
:10314000012E9EEF18F000500201CB130001410E3A
:103150000201CD6F0001CDC234F0020E345E0000DA
:1031600000000000000000000000342EB3EF18F053
:103170000201CA2B000162EF18F00201CB51016E6F
:103180000001000C0201C2518F08D8A003D0000139
:10319000CFEF18F00001020E016E2BEF1AF0070EB0
:1031A0000201C2258F08D8A003D00001DDEF18F07E
:1031B0000001030E016E2BEF1AF074EC17F001C042
:1031C000C5F2CC0E0201CB6F0001EFEC17F00F0E31
:1031D0000201CB6F0001EFEC17F0C2C2CBF2EFECB3
:1031E00017F00201CB6B0001EFEC17F0C4C203F043
:1031F0000201C351E96E03C0EAFFEFCFCAF2CAC2AF
:10320000CBF20001EFEC17F00201C32BD8B4C42BB2
:10321000C4C203F0C351E96E03C0EAFFEFCFCAF2A4
:10322000CAC2CBF20001EFEC17F00201C32BD8B4F5
:10323000C42BC4C203F0C351E96E03C0EAFFEFCF51
:10324000CAF2CAC2CBF20001EFEC17F00201C32BA5
:10325000D8B4C42BC4C203F0C351E96E03C0EAFF63
:10326000EFCFCAF2CAC2CBF20001EFEC17F00201B5
:10327000C32BD8B4C42BC4C203F0C351E96E03C03E
:10328000EAFFEFCFCAF2CAC2CBF20001EFEC17F0AF
:103290000201C32BD8B4C42BC4C203F0C351E96EDE
:1032A00003C0EAFFEFCFCAF2CAC2CBF20001EFECD3
:1032B00017F00201C32BD8B4C42BC4C203F0C3510E
:1032C000E96E03C0EAFFEFCFCAF2CAC2CBF2000137
:1032D000EFEC17F00201C32BD8B4C42BC4C203F027
:1032E000C351E96E03C0EAFFEFCFCAF2CAC2CBF204
:1032F0000001EFEC17F00201C32BD8B4C42B00017E
:103300005EEC18F001C0C7F25EEC18F001C0C8F224
:1033100074EC17F0080E0201C35F000EC45B0001DD
:1033200074EC17F001C0C5F2CC0E0201CB6F0001A6
:10333000EFEC17F0550E0201CB6F0001EFEC17F028
:10334000C2C2CBF2EFEC17F00201CB6B0001EFEC45
:1033500017F0070E0201CB6F0001EFEC17F002012E
:10336000CB6B0D0ECA6F00010201CA51CB11D8A45C
:1033700003D0000109EF1AF00001FA0E0201CD6F2F
:103380000001CDC234F0020E345E000000000000E7
:10339000000000000000342EC9EF19F0FA0E0201FF
:1033A000CD6F0001CDC234F0020E345E000000008B
:1033B0000000000000000000342EDAEF19F0FA0ED1
:1033C0000201CD6F0001CDC234F0020E345E000068
:1033D00000000000000000000000342EEBEF19F0A8
:1033E000FA0E0201CD6F0001CDC234F0020E345E40
:1033F000000000000000000000000000342EFCEF80
:1034000019F00201CA51D8B4CB07CA070001B4EFC2
:1034100019F05EEC18F001C0C9F20201C951AA0806
:10342000D8A403D000011FEF1AF000010201C95116
:103430005508D8B403D0000125EF1AF00001010EA1
:103440000201C56F000128EF1AF00201C56B0001EF
:103450000201C551016E00015BEF1AF0B5C2B7F26F
:10346000B6C2B8F2020E0201C16F00010201C151E1
:103470000708D8B003D000014EEF1AF00001036A2C
:103480000201C151B70FE96E020E0320EA6EEF6A26
:1034900000010201C12B000136EF1AF0020E0201F9
:1034A000C06FB70EBF6FC26BC0C2C4F2BFC2C3F25F
:1034B0000001C2EF18F00150016E9EEF1CF0020EE9
:1034C000386E979A8E9A98988F988C9498968F8643
:1034D0000201CB6B5A0ECA6F00010201CA51CB1117
:1034E000D8A403D00001C2EF1AF00001FA0E0201C5
:1034F000CD6F0001CDC234F0020E345E000000003A
:103500000000000000000000342E82EF1AF0FA0ED6
:103510000201CD6F0001CDC234F0020E345E000016
:1035200000000000000000000000342E93EF1AF0AD
:10353000FA0E0201CD6F0001CDC234F0020E345EEE
:10354000000000000000000000000000342EA4EF86
:103550001AF0FA0E0201CD6F0001CDC234F0020E56
:10356000345E000000000000000000000000342E67
:10357000B5EF1AF00201CA51D8B4CB07CA0700014F
:103580006DEF1AF042C0BDF278EC0FF0378E9E90CE
:10359000FD0ECF6EE80ECE6ECC6A9D80000C5FEC07
:1035A0001AF0000CD551A508D8A44CEF1DF0D65147
:1035B0000E08D8A44CEF1DF0D851C608D8A49CEF33
:1035C0001BF0D951A808D8A49CEF1BF00201AA6BEC
:1035D000AB6BAC6BAD6BAE6BAF6BB06BB16BB26B1F
:1035E000B36B00010201F16BD50EF06F060EF26FA6
:1035F000000190EC0EF00152D8B49CEF1BF0E3C038
:10360000ACF2E4C0ADF20201AC53D8B403D0000177
:1036100014EF1BF000010201AD53D8B403D0000138
:1036200014EF1BF00001FF000201AC3D02D004D0FA
:103630000001000129EF1BF000010201AD3D02D0A5
:1036400004D00001000129EF1BF0000113EC0FF082
:1036500003000201AC53D8B403D0000139EF1BF0D2
:1036600000010201AD53D8A403D000019CEF1BF070
:1036700000010201AC3D02D004D0000100014DEF79
:103680001BF000010201AD3D02D004D00001000199
:103690004DEF1BF000019CEF1BF016EF0FF001C087
:1036A000ABF21FEF0FF001C0AAF20201AC513C0DCA
:1036B000F350AD25AE6FAF6BD890AF31B36FAE3175
:1036C000B26F070EB56F000132EC0FF076EC0FF021
:1036D0000201B16BB06B00010201B151B35DD8B012
:1036E00003D000018CEF1BF00001D8A481EF1BF088
:1036F0000201B251B05DD8A003D000018CEF1BF0E5
:10370000000103000000000000000201B02BD8B44B
:10371000B12B00016CEF1BF030EC0FF0AAC2B5F238
:1037200032EC0FF00201AB53D8A403D000019CEFA0
:103730001BF0000176EC0FF0D851CB08D8A4B9EFFC
:103740001BF0D9510808D8A4B9EF1BF00201F16BA6
:10375000D50EF06F060EF26F000190EC0EF00152E4
:10376000D8B4B9EF1BF0E3C0B4F2B4C2B5F2A1EF24
:103770000FF0D851C608D8A4C7EF1BF0D951D00814
:10378000D8A4C7EF1BF0DBC0B5F2A7EC0FF0D851FF
:103790009F08D8A4D5EF1BF0D951C008D8A4D5EF05
:1037A0001BF0DBC0B5F2AAEF0FF0D82DDBEF1BF05A
:1037B000D92DDBEF1BF0D851C608D8A4E7EF1BF0DA
:1037C000D9515808D8A4E7EF1BF036EF15F0D851BF
:1037D0006D08D8A4F6EF1BF0D951C008D8A4F6EFB5
:1037E0001BF01EA2F6EF1BF009EF17F0D85174087A
:1037F000D8A425EF1CF0D9517808D8A425EF1CF0E7
:103800000201F16BD50EF06F0C0EF26F000190EC1F
:103810000EF00152D8B425EF1CF0DBC0B5F264EC19
:1038200017F0DC53D8B419EF1CF06FEC17F01BEF56
:103830001CF06FEC17F0DD53D8B423EF1CF071ECE3
:1038400017F025EF1CF071EC17F0D8518E08D8A4B2
:10385000FAEF1CF0D9511808D8A4FAEF1CF00201B5
:10386000F16BD50EF06F0B0EF26F000190EC0EF0C5
:103870000152D8B4FAEF1CF013EC0FF00201CB6B3D
:10388000140ECA6F00010201CA51CB11D8A403D093
:10389000000198EF1CF00001FA0E0201CD6F00014B
:1038A000CDC234F0020E345E0000000000000000C3
:1038B00000000000342E58EF1CF0FA0E0201CD6F0C
:1038C0000001CDC234F0020E345E000000000000A2
:1038D000000000000000342E69EF1CF0FA0E020117
:1038E000CD6F0001CDC234F0020E345E0000000046
:1038F0000000000000000000342E7AEF1CF0FA0EE9
:103900000201CD6F0001CDC234F0020E345E000022
:1039100000000000000000000000342E8BEF1CF0BF
:103920000201CA51D8B4CB07CA07000143EF1CF00B
:10393000DBC0B5F2DCC0B6F22EEF1AF0CFEC1AF015
:103940000201CB6B140ECA6F00010201CA51CB11E8
:10395000D8A403D00001FAEF1CF00001FA0E020116
:10396000CD6F0001CDC234F0020E345E00000000C5
:103970000000000000000000342EBAEF1CF0FA0E28
:103980000201CD6F0001CDC234F0020E345E0000A2
:1039900000000000000000000000342ECBEF1CF0FF
:1039A000FA0E0201CD6F0001CDC234F0020E345E7A
:1039B000000000000000000000000000342EDCEFDA
:1039C0001CF0FA0E0201CD6F0001CDC234F0020EE0
:1039D000345E000000000000000000000000342EF3
:1039E000EDEF1CF00201CA51D8B4CB07CA070001A1
:1039F000A5EF1CF01EBE01EF1DF0000E016E4EEF94
:103A00001DF0D8517308D8A448EF1DF0D951D8083B
:103A1000D8A448EF1DF00201F16BD50EF06F060E31
:103A2000F26F000190EC0EF00152D8B448EF1DF097
:103A30005DEC06F00152D8B420EF1DF0F2EC14F06A
:103A4000A50E956F0E0E966F976B860E986F200ED3
:103A5000996F080E9A6F30C19BF031C19CF032C152
:103A60009DF033C19EF034C19FF035C1A0F036C146
:103A7000A1F037C1A2F00E0E516E1E0E0201F06FC2
:103A80000001FAEC14F00152D8B448EF1DF0378C65
:103A9000010E016E4EEF1DF0000E016EFDEF1EF0E7
:103AA0001EA657EF1DF0010E016E59EF1DF0000E1E
:103AB000016E14EF1FF0378886EF1FF0C68A979AC1
:103AC0008E8A98988F888C82180E0201AA6F000146
:103AD000AAC231F09E903150FD08D8B072EF1DF0AF
:103AE000FD0E316E3150CF5CD8A072EF1DF0CEA626
:103AF00077EF1DF0CECF22F022A081EF1DF083EFF3
:103B00001DF00000000022A288EF1DF08BEF1DF0D9
:103B100000000000000022A490EF1DF095EF1DF0C2
:103B2000000000000000000000000000CC6A9E922F
:103B30009EA298EF1DF0CCCF22F022A0A2EF1DF0A4
:103B4000A4EF1DF00000000022A2A9EF1DF0ACEFD1
:103B50001DF000000000000022A4B1EF1DF0B6EF40
:103B60001DF00000000000000000000000006B9A43
:103B70006B986B88A4BA6E50A4BA6E50640E286E0F
:103B8000988486A4CBEF1DF02852D8B4CBEF1DF05B
:103B90002806C0EF1DF0988486B4D6EF1DF0285299
:103BA000D8B4D6EF1DF02806CBEF1DF0988486A47C
:103BB000E1EF1DF02852D8B4E1EF1DF02806D6EF52
:103BC0001DF0988486B4ECEF1DF02852D8B4ECEFC9
:103BD0001DF02806E1EF1DF0080E006E002EFED746
:103BE0006B9A6B986B88A4BA6E50A4BA6E50A4AA54
:103BF000F7EF1DF06E50016E01C022F0206A1E0E1C
:103C0000286E2852D8B420EF1EF02050CA08D8B42D
:103C100020EF1EF0D8902036A4AA0CEF1EF06E50B4
:103C2000016E01C022F02250E709FF08D8A41CEF62
:103C30001EF020801DEF1EF02090280601EF1EF0E0
:103C40002050CA08D8B429EF1EF0000E016E89EF8B
:103C50001FF05AEC0BF020C029F05AEC0BF020C0FA
:103C6000A7F20CEC0CF020C02BF00CEC0CF020C0F8
:103C70002CF0246A01019395000146EF0DF01EAC73
:103C800044EF1EF0010E246E2452D8A44CEF1EF017
:103C9000000E016E89EF1FF0286A28500B08D8A08B
:103CA00060EF1EF00CEC0CF0036A28502D0FE96E4B
:103CB000010E0320EA6E20C0EFFF282A4DEF1EF010
:103CC0000C0E0201A75DFE0F2D6E2D504008D8A0EE
:103CD00003D0000171EF1EF00001000E016E89EFAC
:103CE0001FF0010193B503D0000180EF1EF0000129
:103CF000E2EC08F0400E2D6E000E016E89EF1FF011
:103D0000286A2D50285CD8B094EF1EF00CEC0CF013
:103D1000036A2850D50FE96E000E0320EA6E20C01A
:103D2000EFFF282A81EF1EF0286A28500108D8A04A
:103D3000A8EF1EF00CEC0CF0036A28503D0FE96E62
:103D4000010E0320EA6E20C0EFFF282A95EF1EF037
:103D500001019853D8A403D00001B9EF1EF000016F
:103D60005AEC0BF02050C708D8A4B9EF1EF0F1EFC1
:103D70000DF0010E0201F26F2D0EF16FF46BD50EF6
:103D8000F36F2DC0F5F20001F3EC0DF002C0A9F2C3
:103D900001C0A8F20201A951036A01013D19286E70
:103DA0003E510201A819006EA951036E005028125D
:103DB0002852D8A403D00001E6EF1EF00001010153
:103DC000406B000E016E000189EF1FF0D551A50870
:103DD000D8A4FDEF1EF0D6510E08D8A4FDEF1EF0BA
:103DE000010193A103D00001FDEF1EF00001010EBF
:103DF0000101406F0001D2EF1AF0D551A508D8A4F7
:103E00000EEF1FF0D6510E08D8A40EEF1FF00101DF
:103E100093B303D0000187EF1FF00001020E0101F0
:103E2000406F000150EF1DF00152D8A487EF1FF042
:103E3000286A28500B08D8A03CEF1FF0036A2850CE
:103E4000150F016E010E032201500201AA6F03C07B
:103E5000ABF2036A28502D0FE96E010E0320EA6EC3
:103E6000EF50AC6FABC2EAFFAAC2E9FFACC2EFFFF2
:103E70000001282A19EF1FF0286A2D50285CD8B0BD
:103E800060EF1FF0036A2850550F016E000E0322E9
:103E900001500201AA6F03C0ABF2036A2850D50F8C
:103EA000E96E000E0320EA6EEF50AC6FABC2EAFF82
:103EB000AAC2E9FFACC2EFFF0001282A3DEF1FF0C4
:103EC000286A28500108D8A084EF1FF0036A285000
:103ED000390F016E010E032201500201AA6F03C0C7
:103EE000ABF2036A28503D0FE96E010E0320EA6E23
:103EF000EF50AC6FABC2EAFFAAC2E9FFACC2EFFF62
:103F00000001282A61EF1FF05BEF1DF01E88010EF3
:103F1000016EF4EF2CF08B84000C979C8E8C000CBF
:103F200037A897EF1FF0010E016E99EF1FF0000EFA
:103F3000016ED4EF1FF037AAA2EF1FF0010E016E41
:103F4000A4EF1FF0000E016EA8EF1FF09BEF1FF013
:103F50000150016EE5EF1FF04452D8B4B4EF1FF0EA
:103F600071EC17F06FEC17F04452D8B4C1EF1FF0AA
:103F70003CA2BFEF1FF08BEC1FF0C1EF1FF06FEC06
:103F800017F0442CCDEF1FF0382CCBEF1FF08DEC49
:103F90001FF0CDEF1FF071EC17F044500308D8A4C8
:103FA000DEEF1FF090EF1FF00152D8B4DCEF1FF0EE
:103FB0008DEC1FF0DEEF1FF071EC17F0445002089B
:103FC000D8A4EFEF1FF0A6EF1FF00152D8B4EDEF29
:103FD0001FF08DEC1FF0EFEF1FF071EC17F0445065
:103FE0000608D8A41DEF20F001014051020A00018B
:103FF000D8B405EF20F0030AD8B40BEF20F0010A83
:10400000D8B411EF20F017EF20F08DEC1FF06FEC1B
:1040100017F01DEF20F08DEC1FF06FEC17F01DEF87
:1040200020F071EC17F08BEC1FF01DEF20F071EC1D
:1040300017F06FEC17F01DEF20F012EF2DF040AEEF
:1040400023EF20F04E2A40AC27EF20F04D2A40AA63
:104050002BEF20F04C2A40A82FEF20F04B2A40A64F
:1040600033EF20F04A2A40A437EF20F0492A40A23B
:104070003BEF20F0482A40A03FEF20F0472A4F2A8C
:104080004F3C9CEF20F0246AFF0E286E296A2950CD
:104090000708D8A06DEF20F0036A2950470FE96E9A
:1040A000000E0320EA6EEF50226E22507F08D8B037
:1040B0005EEF20F0800E225E61EF20F0800ED8804F
:1040C00022562850225CD8B06AEF20F029C024F094
:1040D00022C028F0292A47EF20F0036A2450F2CFAB
:1040E000A6F2F29E08EC02F00201A6BFF28E016E6B
:1040F00001C046F0036A2450F2CFA6F2F29E0001FE
:1041000016EC02F00201A6BFF28EA76FA7C2B5F2AD
:104110000001A7EC0FF0246A24500808D8A09CEFF7
:1041200020F0036A2450470FE96E000E0320EA6E68
:10413000EF6A242A8CEF20F021EF2DF05DEC06F0E1
:104140000152D8B4AAEF20F0010E016EAEEF20F0BC
:10415000AEEF20F0000E016EAEEF20F0000C88EC08
:1041600012F01EB0CFEF20F01F2CC4EF20F01DC0C6
:104170001AF31CC019F31BC018F31AC017F38FEC05
:1041800012F01E80CFEF20F01DC01AF31CC019F3EF
:104190001BC018F31AC017F3BAEC12F01E8088EC9B
:1041A00012F01DEF24F0A5EC11F00152D8A4DDEFC0
:1041B00020F0000E016E3EEF21F08DEC11F0680E44
:1041C0000301246F000195EC11F0DEC21EF3DDC285
:1041D0001DF3DCC21CF3DBC21BF302EC12F0030183
:1041E000246B000195EC11F00301246B000195ECA8
:1041F00011F00301246B000195EC11F00301246B15
:10420000000195EC11F00201E46BE36B0001020187
:10421000E451E25DD8B003D000013AEF21F0000193
:10422000D8A41CEF21F00201E151E35DD8A003D036
:1042300000013AEF21F00001E0C203F00201DF517A
:10424000E56F03C0E6F20301246B000195EC11F069
:10425000E6C2EAFFE5C2E9FF01C0EFFF0201DF2B82
:10426000D8B4E02B00010201E32BD8B4E42B000109
:1042700007EF21F0A3EC11F0010E016E000CA5EC8C
:1042800011F00152D8A449EF21F0000E016E97EF12
:1042900023F0CAC212F3C9C211F3C8C210F3C7C2D5
:1042A0000FF31DC016F31CC015F31BC014F31AC086
:1042B00013F39DEC10F00152D8B417EF22F0CAC2EC
:1042C0000EF3C9C20DF3C8C20CF3C7C20BF327EC3F
:1042D00013F002C0D0F201C0CFF2CEC2D4F2CDC2F0
:1042E000D3F28DEC11F01F2C8BEF21F0540E030153
:1042F000246F000195EC11F0CAC21EF3C9C21DF370
:10430000C8C21CF3C7C21BF302EC12F00301246BFA
:10431000000195EC11F01F500208D8A4A5EF21F080
:10432000560E0301246F000195EC11F0CAC21EF372
:10433000C9C21DF3C8C21CF3C7C21BF302EC12F0C2
:104340000301246B000195EC11F00201CD51CE1157
:10435000D8A403D00001E2EF21F000010201CF5107
:104360000808D8B403D00001C2EF21F00001020117
:10437000D02D02D004D000010001C2EF21F00001D5
:10438000E2EF21F0CCC203F00201CB51D76F03C0A2
:10439000D8F20301246B000195EC11F0D8C2EAFFBA
:1043A000D7C2E9FF01C0EFFF0201CB2BD8B4CC2B61
:1043B000CF2BD8B4D02BCD51D8B4CE07CD07000128
:1043C000A5EF21F0A3EC11F00201CD51CE11D8A43C
:1043D00003D0000113EF22F000010201CD51D35DA3
:1043E000006ECE51D459036E0050C725D76F0350CD
:1043F000C821D86F000EC921D96F000ECA21DA6F0B
:10440000DAC2DEF2D9C2DDF2D8C2DCF2D7C2DBF208
:10441000CCC2E0F2CBC2DFF2CEC2E2F2CDC2E1F218
:104420000001D3EC20F0010E016E97EF23F00201A2
:10443000CA511D5CD8B003D0000183EF23F0000106
:10444000D8A444EF22F00201C9511C5CD8B003D0BB
:10445000000183EF23F00001D8A444EF22F0020111
:10446000C8511B5CD8B003D0000183EF23F00001DA
:10447000D8A444EF22F00201C7511A5CD8B003D08F
:10448000000183EF23F000010201CD51C725D76F52
:10449000CE51C821D86F000EC921D96F000ECA2194
:1044A000DA6F1D50DA5DD8B003D0000183EF23F03E
:1044B0000001D8A47DEF22F01C500201D95DD8B0D4
:1044C00003D0000183EF23F00001D8A47DEF22F098
:1044D0001B500201D85DD8B003D0000183EF23F058
:1044E0000001D8A47DEF22F01A500201D75DD8B0A8
:1044F00003D0000183EF23F00001CEC2D4F2CDC27D
:10450000D3F20201C7511A5CD76FC8511B58D86F3C
:10451000C9511C58D96FCA511D58DA6F1DC00EF30E
:104520001CC00DF31BC00CF31AC00BF3000127ECE9
:1045300013F002C003F001500201D75DD56F0350A4
:10454000D859D66FD06BCF6BCAC2DEF2C9C2DDF2CA
:10455000C8C2DCF2C7C2DBF2CCC2E0F2CBC2DFF2EF
:10456000D6C2E2F2D5C2E1F20001D3EC20F00201A2
:10457000D551CD5FD651CE5BD551CB27D651CC236B
:1045800000018DEC11F01F2CE9EF22F0540E030115
:10459000246F000195EC11F00201D551C725D76FAA
:1045A000D651C821D86F000EC921D96F000ECA217B
:1045B000DA6FDAC21EF3D9C21DF3D8C21CF3D7C218
:1045C0001BF3000102EC12F00301246B000195ECD7
:1045D00011F01F500208D8A411EF23F0560E03016A
:1045E000246F000195EC11F00201D551C725D76F5A
:1045F000D651C821D86F000EC921D96F000ECA212B
:10460000DA6FDAC21EF3D9C21DF3D8C21CF3D7C2C7
:104610001BF3000102EC12F00301246B000195EC86
:1046200011F00201CD51CE11D8A403D000014EEFFC
:1046300023F000010201CF510808D8B403D00001D3
:104640002EEF23F000010201D02D02D004D0000192
:1046500000012EEF23F000014EEF23F0CCC203F057
:104660000201CB51D76F03C0D8F20301246B0001C4
:1046700095EC11F0D8C2EAFFD7C2E9FF01C0EFFF05
:104680000201CB2BD8B4CC2BCF2BD8B4D02BCD510F
:10469000D8B4CE07CD07000111EF23F0A3EC11F041
:1046A0000201CD51CE11D8A403D000017FEF23F039
:1046B00000010201CD51D35D006ECE51D459036E7D
:1046C0000050C725D76F0350C821D86F000EC921ED
:1046D000D96F000ECA21DA6FDAC2DEF2D9C2DDF27A
:1046E000D8C2DCF2D7C2DBF2CCC2E0F2CBC2DFF23E
:1046F000CEC2E2F2CDC2E1F20001D3EC20F0010E15
:10470000016E97EF23F0CAC2DEF2C9C2DDF2C8C261
:10471000DCF2C7C2DBF2CCC2E0F2CBC2DFF2CEC227
:10472000E2F2CDC2E1F2D3EC20F0010E016EB3EF64
:1047300023F00201C66BC56BBEC2C4F2BDC2C3F298
:10474000C6C2CAF2C5C2C9F2C4C2C8F2C3C2C7F265
:10475000C0C2CCF2BFC2CBF2C2C2CEF2C1C2CDF255
:1047600000013FEF21F00152D8B4BBEF23F0000E5F
:10477000016EBDEF23F0010E016E000CBEC201F010
:10478000BDC200F00066012A0900F5CFEEFF002E41
:10479000C4EF23F0012EC4EF23F0F86A9FEF24F05A
:1047A000C0C203F00201BF51E96E03C0EAFFEF503F
:1047B000C36FC2C203F0C151E96E03C0EAFFEF50FC
:1047C000C46FC4C2C5F2C3C2C4F2C5C2C3F2BE51F3
:1047D000C41BC439006E0F0E00160050C41BC43930
:1047E000006EF00E00160050C31BC431006E003284
:1047F00000321F0E00160050C31BC439006EF00EAD
:1048000000160050006ED89000360050C41BC0C285
:1048100003F0BF51E96E03C0EAFFC3C2EFFFC2C29B
:1048200003F0C151E96E03C0EAFFC4C2EFFF00010B
:10483000000C13EC0FF0AFEF20F08BEC1FF08DECC1
:104840001FF00201A76BA86B0101A26B400EA16FC4
:10485000AB6B010EAA6F470EA96FA86B0001C8ECE5
:104860000FF00201BE6BBD6B020EC06FAD0EBF6FCD
:10487000C26B100EC16F000199EC23F00201BE6BF8
:10488000AFC2BDF2BDC2ACF2AB6B036AB051AB2795
:104890000350AC23AA6BA96B00010201AA51AC5DC5
:1048A000D8B003D00001D8EF24F00001D8A462EF03
:1048B00024F00201AB51A95DD8A003D00001D8EFCC
:1048C00024F000010201AA511108D8B003D0000160
:1048D0008EEF24F00001D8A477EF24F00201A95153
:1048E0002F08D8B003D000018EEF24F00001A2C140
:1048F000BEF2A1C1BDF2020E0201C06FAD0EBF6FCC
:10490000C26B100EC16F000199EC23F0100E010173
:10491000A127000EA2230001A9EF24F0AAC1F8FFED
:10492000A9C1F7FFA8C1F6FF020EEA6EAD0EE96E4F
:104930000201BE6B100EBD6F0001BEEF23F0100E22
:104940000101A827000EA923000EAA23000EAB2305
:1049500000010201A66B00010201A6510F08D8B0A8
:1049600003D00001D1EF24F00001036A0201A65137
:10497000AD0FE96E020E0320EA6EEFCFBDF2BDC2AD
:10498000BEF2020EC06FA70EBF6F020EC26FA80E5E
:10499000C16F0001D0EC23F00201A62B0001ACEFA7
:1049A00024F00201A92BD8B4AA2B00014DEF24F06A
:1049B000A6C1BEF2020E0201C06FA70EBF6F020EAB
:1049C000C26FA80EC16F0001D0EC23F0A7C1BEF2E8
:1049D000020E0201C06FA70EBF6F020EC26FA80EBB
:1049E000C16F0001D0EC23F0CFEC1AF00201A75305
:1049F000D8B403D000010CEF25F000010201A85348
:104A0000D8B403D000010CEF25F00001010E016EB7
:104A100010EF25F010EF25F0000E016E10EF25F0DD
:104A200066EF25F013EC0FF0F29CF29EF2BE15EF4C
:104A300025F0010EFB6EF90EFA6EB20EF96E00EF64
:104A400098F000EFF8F000EFF8F000EF78F0B4EF36
:104A500025F0010193A903D000012AEF26F00001FF
:104A600001019A519E5DD8B003D00001BAEF25F044
:104A70000001D8A445EF25F001019D51995DD8A012
:104A800003D00001BAEF25F000019EEC20F00152A6
:104A9000D8A4BAEF25F00101A5510E08D8B003D073
:104AA0000001ABEF25F000015DEC06F00152D8B437
:104AB0005CEF25F0F2EC14F00101A553D8B403D05B
:104AC000000171EF25F0000119EF24F001B06EEF45
:104AD00025F001019397000171EF25F00101938703
:104AE0000001A50E956F0E0E966F976BC60E986F10
:104AF000580E996F030E9A6F010193B703D000010E
:104B000095EF25F00001010E036EA00EE96E03C0C3
:104B1000EAFFEF509B6F010E036E9F0EE96E03C01C
:104B2000EAFFEF509C6F99EF25F0CC0E9B6FCC0EF7
:104B30009C6F080E516E1E0E0201F06F0001FAEC20
:104B400014F00152D8B4A6EF25F0378C0101A52B43
:104B50000001B8EF25F0010193B703D00001B6EFD3
:104B600025F0000112EF25F0B8EF25F0AEEC0FF0C4
:104B700025EF26F001019D53D8B403D00001CAEF00
:104B800025F0000101019E53D8A403D0000125EFB8
:104B900026F000010101A4516408D8A003D000014F
:104BA000D7EF25F00001AEEC0FF025EF26F0010164
:104BB000A3510508D8A003D000011CEF26F0000186
:104BC0009EEC20F00152D8A41CEF26F05DEC06F01C
:104BD0000152D8B4EEEF25F0F2EC14F0A50E956F6B
:104BE0000E0E966F976BC60E986F580E996F020E49
:104BF0009A6F010E036EA00EE96E03C0EAFFEF503C
:104C00009B6F010E036E9F0EE96E03C0EAFFEF502B
:104C10009C6F080E516E1E0E0201F06F0001FAEC3F
:104C200014F00152D8B416EF26F0378C0101A36BB3
:104C3000A42B000125EF26F09EEC20F00152D8A411
:104C400025EF26F00101A32B00010101939900013A
:104C50002CEF26F00101939900012EEF2DF01EA8F4
:104C600036EF26F0010E016E38EF26F0000E016ED1
:104C70003CEF26F02FEF26F00150016E000C0101F1
:104C80001651016E00014AEF26F00201B66B0001D9
:104C90003FEF26F001500201B65DD8A003D000011D
:104CA00092EF26F00001036A0201B651550FE96E3A
:104CB000000E0320EA6EB451EF5CD8B403D00001BB
:104CC00083EF26F00001010E0201B625036A550F9D
:104CD000E96E000E0320EA6EB551EF5CD8B403D044
:104CE000000183EF26F00001030E0201B625036ADE
:104CF000550F016E000E03220150016E0350026E2B
:104D0000000196EF26F0020E0201B625036A550F48
:104D1000E96E000E0320EA6EEF50030FB627000184
:104D200048EF26F0000E016E000E026E000C010E20
:104D30000201AF5D006E000EB059036E0050E96EC7
:104D400003C0EAFFEF50016E0001C4EF29F0AFC2CB
:104D5000B4F2B0C2B5F245EC26F002C003F0015047
:104D6000D8A4B7EF26F00352D8B4BDEF26F0010E59
:104D7000016EC1EF26F0C1EF26F0000E016EC1EF0B
:104D800026F066EF28F01EAACAEF26F0020E016E8A
:104D900002EF27F0400ED880010181550208D8B0FB
:104DA00003D00001DBEF26F00001010E016E02EFDF
:104DB00027F002EF27F0036A01018151410FE96EEC
:104DC000010E0320EA6EB0C2EFFF010E8125036AD7
:104DD000410FE96E010E0320EA6EB1C2EFFF020E31
:104DE0008125036A410FE96E010E0320EA6EEF6A26
:104DF000020E8125926F030E8127000E016E0001C5
:104E000002EF27F0000C1EAA0AEF27F0020E016E37
:104E100034EF27F0400ED88001018155000AD8B444
:104E200003D000011BEF27F00001010E016E34EFEB
:104E300027F034EF27F0036A01019251410FE96E28
:104E4000010E0320EA6EEF2A036A8151410FE96ED9
:104E5000010E0320EA6EB3C2EFFF010E8127000EA0
:104E6000016E000134EF27F0000C37BE3CEF27F055
:104E7000000E016E69EF27F037A043EF27F0000E18
:104E8000016E69EF27F0EA6A950EE96E010EE26E97
:104E9000410EE16E400E016EE6CFEEFF012E4CEFAB
:104EA00027F081C151F0B0C2F0F2FAEC14F00152D7
:104EB000D8B465EF27F00101816B926B010E016E92
:104EC000000169EF27F069EF27F0000E016E69EF2E
:104ED00027F0000C9EEC20F00152D8B472EF27F0BE
:104EE000F2EC14F0A50E0201B06F0E0EB16F0001CE
:104EF000C3EC26F06C0E0201B06F800EB16F0001A2
:104F0000C3EC26F00201AF6B00010201AF510708AC
:104F1000D8B003D00001A3EF27F00001030E020177
:104F2000AF25036A2D0FE96E010E0320EA6EEFCF65
:104F3000B1F2B1C2B3F2000103EC27F00201AF2BD2
:104F4000000185EF27F0660E0201B06F400EB16FD1
:104F50000001C3EC26F0010E0201B36F000103EC67
:104F600027F0660E0201B46F400EB56F000145ECEC
:104F700026F002C0B1F201C0B0F2010E0201B0256C
:104F8000016E000EB121036E0150E96E03C0EAFF0D
:104F9000EFCFB2F2B2C2B3F2000103EC27F0140E6D
:104FA0000201B06F000135EC27F097EF28F0010106
:104FB000F791F797F56BB16BB26BF7990001000CA5
:104FC0000201B16B0101F7B103D0000156EF28F0E7
:104FD0000001020E0101F55DF80FFD0F0201B06F37
:104FE000AF6B00010201AF510708D8B003D0000138
:104FF0001EEF28F000010201AF51B025036AB50F82
:10500000E96E010E0320EA6EEFCFB3F2030EAF2577
:10501000036A2D0FE96E010E0320EA6EEF50B35DB7
:10502000D8B403D0000119EF28F000010201B12B20
:1050300000010201AF2B0001F2EF27F00201B15194
:105040000808D8B403D0000156EF28F000010C0E78
:105050000201B025036AB50FE96E010E0320EA6E66
:10506000EFCFB3F2660EB46F400EB56F000145ECA2
:1050700026F002C0B5F201C0B4F2010E0201B4255F
:10508000016E000EB521036E0150E96E03C0EAFF08
:10509000EF50B35DD8B403D0000156EF28F0000103
:1050A0000101F783F7850001D7EC27F0ACEF28F07A
:1050B0003AEC26F00152D8B4ACEF28F0660E0201AB
:1050C000AF6F400EB06F0001A7EF26F00152D8B4C9
:1050D000ACEF28F06C0E0201B46F800EB56F0001CA
:1050E00045EC26F002C0B0F201C0AFF2B0C2F1F25E
:1050F000AFC2F0F20201F26B000190EC0EF001522F
:10510000D8B4ACEF28F0660E0201B46F400EB56F54
:10511000000145EC26F002C003F00150E96E03C027
:10512000EAFFEF52D8A499EF28F06AEF27F0ACEF2E
:1051300028F0660E0201B46F400EB56F000145EC19
:1051400026F002C003F00150E96E03C0EAFFEF2C25
:10515000ACEF28F0E0EF27F092EF29F00201146B9A
:10516000AF6B00010201AF510208D8B003D00001BB
:10517000D4EF28F000010201AF51090DF350B16BDB
:10518000B06F080EB025016E000EB121036E015004
:10519000F90FE96E010E0320EA6EEF6A00010201C9
:1051A000AF2B0001B2EF28F00101B46BB36B00012B
:1051B000000C0101F7B103D0000104EF29F0000158
:1051C0000101B153D8A403D0000104EF29F000017C
:1051D0000101B107B153D8B403D0000104EF29F0A5
:1051E00000010101B207B253D8A403D0000101EFBE
:1051F00029F000010101F787320EB16F000104EFC1
:1052000029F00101F78900010101B351B411D8A4BB
:1052100003D000011CEF29F000010101B351D8B403
:10522000B407B307B351B411D8B403D000011CEFD5
:1052300029F00001AEEC28F094EF29F05DEC06F0C7
:105240000152D8B428EF29F0000E016E3EEF29F08C
:105250001EAA2FEF29F0000E016E3EEF29F0400E3E
:10526000016E010EEA6E410EE96EEE6A012E35EF17
:1052700029F00101816B926B010E016E000143EF79
:1052800029F01EEF29F0010EEA6E410EE96E010EC3
:10529000E26EB50EE16E0101F551016ED8A403D0A6
:1052A000000159EF29F00001E6CFEEFF012E54EF87
:1052B00029F0F5C181F10A0E0201B06F000135EC51
:1052C00027F075EF29F00101F7B703D0000175EF62
:1052D00029F000019EEC20F00152D8A475EF29F0CE
:1052E0000101F797000141EF29F096EF29F0010144
:1052F000F7B903D0000182EF29F00001D7EC27F0C5
:105300000101F793000198EF29F0010193BF03D049
:10531000000198EF29F000010101F891F7950001D3
:1053200058EF28F0D9EF28F063EF29F077EF29F054
:1053300078EF2AF0020165510A08D8A403D00001D1
:1053400076EF2AF000013AEC26F00152D8B476EF5D
:105350002AF0BA0E0201B46F5A0EB56F000145EC87
:1053600026F002C0A7F201C0A6F20201A651A711C1
:10537000D8A403D0000176EF2AF00001A7C2B0F252
:10538000A6C2AFF297EF26F001500608D8A476EF38
:105390002AF00201AA6B0001036A0201AA51A625A4
:1053A000E96EA7510320EA6EEFCF61F2606B010E48
:1053B000AA25036AA625E96EA7510320EA6EEF50DD
:1053C0006027000E6123020EAA27036AAA51A625B0
:1053D000E96EA7510320EA6EEFCF63F2626B010E14
:1053E000AA25036AA625E96EA7510320EA6EEF50AD
:1053F0006227000E6323020EAA27036AAA51A6257C
:10540000E96EA7510320EA6EEFCFA9F2A86B010E57
:10541000AA25036AA625E96EA7510320EA6EEF507C
:10542000A827000EA9230001B250B3CF03F0020158
:10543000AB6F03C0ACF2A851AB5FA951AC5B62513A
:10544000605DAF6F63516159B06FD890B031AE6F8E
:10545000AF31AD6FACC203F0AB51ACBF03D00001B4
:105460003DEF2AF00001000ED8800201AB55006E1E
:10547000000EAC55036E005000010201AF6F03C077
:10548000B0F2AEBF03D000014EEF2AF0B0BF03D0A0
:1054900000016AEF2AF0000155EF2AF00201B0AFD7
:1054A00003D000016EEF2AF000010201AE51B05DA1
:1054B000D8B003D000016EEF2AF00001D8A46AEF43
:1054C0002AF00201AF51AD5DD8A003D000016EEF0C
:1054D0002AF00001010E0201646F0001A9C2B3FFAE
:1054E000A8C2B2FF0A0E0201656F000185EF29F024
:1054F00046EF2BF0000E016ED5EF2AF00201A96BEA
:10550000ABB403D000018BEF2AF00001AECFAAF2BA
:105510000201A9810001ABA293EF2AF0AB98AB88FE
:105520000201A98300010201A951016E0001AEEF41
:105530002AF09EAAA2EF2AF0010E016EA6EF2AF031
:10554000A6EF2AF0000E016EA6EF2AF0B0EF2AF0C7
:10555000AE50016EBEEF2AF07EEF2AF099EF2AF0EE
:105560000152D8B4CAEF2AF0A8C203F00201A75131
:10557000A96F03C0AAF20001A8EF2AF0AAC2EAFFAD
:10558000A9C2E9FF01C0EFFF000E016ECEEF2AF0C5
:10559000CEEF2AF0010E016ECEEF2AF0E7EF2AF0EF
:1055A000AB9E8A9A000C7AEF2AF002016E53D8B4AF
:1055B00003D00001DFEF2AF0000139EF2BF0020EDB
:1055C0000201A86FA60EA76F0001ACEF2AF00152EE
:1055D000D8A42AEF2BF00201A651FF0A006E003A70
:1055E0000F0E001600500F0BA96FA6510F0BA95DEF
:1055F000D8B403D000012AEF2BF000010201A6511C
:105600006F5DD8B403D0000120EF2BF00001020140
:105610007053D8B403D000011BEF2BF0000102013E
:10562000A6510F0B6D6F0001D0EC2AF002016E6BDA
:1056300000011EEF2BF002017007000126EF2BF096
:10564000A6C26FF2030E0201706F0001140E020178
:10565000716F000102017153D8B403D0000137EF1C
:105660002BF0000102016D6B000139EF2BF00201FC
:105670007107000150EF2BF002011653D8A403D09C
:10568000000146EF2BF000019AEF29F002011753B9
:10569000D8A403D0000150EF2BF00001D3EF2AF083
:1056A00054EF2BF03CEF2BF033EF2DF058EF2BF0B5
:1056B000010E366E379A1E98030E0101406F0001ED
:1056C00024EF02F06AEF02F001C040F09E90030167
:1056D0001B6B0001BFEC02F0C68A040E6F6E6C9467
:1056E0006C886C8E6C9C6B8E6B9A6B9C6B986C9AB6
:1056F0006B8E979A8E8A98988F888C820101985326
:10570000D8A403D000018AEF2BF0000198C1A6F2C3
:10571000C7EF02F038506308D8A491EF2BF0C0EF28
:105720002BF038500208D8A498EF2BF09FEF2BF005
:10573000382C9DEF2BF04FEF2CF037EF2DF0060EAD
:10574000366E9D90979A8E8A98988F888C82FCEFFF
:1057500005F00152D8B4B9EF2BF0010E386E502C81
:10576000B4EF2BF067EC06F03B6A98EF2CF0BEEF3D
:105770002BF0CF6A960ECE6EFAEF2CF0FAEF2CF0EB
:10578000630E366E9D90979A8E8A98988F888C8239
:105790000201A76B010EA86F0001C9EC02F001C065
:1057A00022F02252D8B44DEF2CF0979A8E9A989806
:1057B0008F88CF500E08D8B0E0EF2BF0FAEF2CF026
:1057C0000F0E0201AA6F0001AAC231F09E90315063
:1057D000FD08D8B0EEEF2BF0FD0E316E3150CF5CEE
:1057E000D8A0EEEF2BF0CEA6F3EF2BF0CECF22F029
:1057F00022A0FDEF2BF0FFEF2BF00000000022A213
:1058000004EF2CF007EF2CF000000000000022A4B1
:105810000CEF2CF011EF2CF0000000000000000055
:1058200000000000CC6A9E929EA214EF2CF0CCCF18
:1058300022F022A01EEF2CF020EF2CF00000000040
:1058400022A225EF2CF028EF2CF000000000000031
:1058500022A42DEF2CF032EF2CF00000000000000D
:10586000000000000000AA0E326EC950206E3250B7
:10587000C96EC7A039EF2CF026C032F0C950206E97
:105880003250C96EC7A042EF2CF0326AC950206E68
:105890003250C96EC7A04AEF2CF0FAEF2CF0020E7E
:1058A000366E3A502E5CD8B063EF2CF03B500408B3
:1058B000D8A063EF2CF0979A8E9A98988F885EEC18
:1058C00005F07AEF2CF0979A8E8A98988F888C82C0
:1058D0000A0E0201A76F010EA86F0001C9EC02F0C9
:1058E00001C022F02252D8B479EF2CF03B6A7AEF53
:1058F0002CF03B2A7CEF2CF0030E366E1E942EAA61
:1059000091EF2CF0010E0201A66F00017CEC06F075
:1059100001C040F03B52D8A48FEF2CF01E8496EFCC
:105920002CF00201A66B00017CEC06F098EF2CF045
:10593000040E366E0201FB6B2FC0FAF2010EFD6FF2
:10594000FC6B0001D0EC07F002C03FF001C03EF05C
:105950002E503E26000E3F22CF500E08D8B0B3EF97
:105960002CF0FAEF2CF037A0CCEF2CF03FC0A7F2D0
:105970003EC0A6F2E1EC07F001C020F0202CC3EFFE
:105980002CF0DAEF2CF020500208D8A4CAEF2CF04B
:10599000E9EF2CF0D8EF2CF00201A76BA66B000109
:1059A000E1EC07F00152D8B4D8EF2CF0E9EF2CF07D
:1059B000FAEF2CF0050E366ECF501708D8B0E3EF93
:1059C0002CF0FAEF2CF0E3EF08F04DEF0BF0FAEFCC
:1059D0002CF0080E366ECF501708D8B0F2EF2CF02E
:1059E000FAEF2CF05EEF1DF00152D8A4F8EF2CF086
:1059F000FAEF2CF0140E366E979A8E8A98988F884C
:105A00008C82326AC950206E3250C96E6B9E8B9A5E
:105A1000C69A979A8E9A98988F983C2AD8B43D2A1D
:105A2000ACEF1FF0382C1CEF2DF03B500708D8B01E
:105A30001CEF2DF0020E386E1EA421EF2DF01FEF8B
:105A400020F09E9037AE28EF2DF09D802AEF2DF0AC
:105A500003EC0FF067EC06F029EF25F01EB233EFF0
:105A60002DF052EF2BF0000E016E3BEF2DF00A0EE1
:105A7000366EFAEF2CF09E902EEF00F0C26A0D0EFB
:105A8000C16E060EC06E95EF44F002017551000A1A
:105A90000001D8B456EF2DF0010AD8B46EEF2DF006
:105AA000030AD8B486EF2DF0A4EF2DF0EF0E926E1E
:105AB000806AFF0E936E816AD30E946E826A730EB3
:105AC000956E0C0E836ECC0E966E846A0B0E976EDE
:105AD000856AE40E986E866AA4EF2DF0D30E926E5E
